{"contracts/Storage.sol":{"Storage":{"abi":[{"inputs":[],"name":"totalStorage","outputs":[{"internalType":"uint256","name":"","type":"uint256"}],"stateMutability":"view","type":"function"}],"evm":{"bytecode":{"linkReferences":{},"object":"6080604052348015600f57600080fd5b50608c8061001e6000396000f3fe6080604052348015600f57600080fd5b506004361060285760003560e01c8063de6b897a14602d575b600080fd5b60336047565b604051603e9190604d565b60405180910390f35b60015481565b9081526020019056fea2646970667358221220c227bd85a0e9101897047aad54e385f309b368e1d8a12384d12bc3e0fa4c968a64736f6c63430008000033","opcodes":"PUSH1 0x80 PUSH1 0x40 MSTORE CALLVALUE DUP1 ISZERO PUSH1 0xF JUMPI PUSH1 0x0 DUP1 REVERT JUMPDEST POP PUSH1 0x8C DUP1 PUSH2 0x1E PUSH1 0x0 CODECOPY PUSH1 0x0 RETURN INVALID PUSH1 0x80 PUSH1 0x40 MSTORE CALLVALUE DUP1 ISZERO PUSH1 0xF JUMPI PUSH1 0x0 DUP1 REVERT JUMPDEST POP PUSH1 0x4 CALLDATASIZE LT PUSH1 0x28 JUMPI PUSH1 0x0 CALLDATALOAD PUSH1 0xE0 SHR DUP1 PUSH4 0xDE6B897A EQ PUSH1 0x2D JUMPI JUMPDEST PUSH1 0x0 DUP1 REVERT JUMPDEST PUSH1 0x33 PUSH1 0x47 JUMP JUMPDEST PUSH1 0x40 MLOAD PUSH1 0x3E SWAP2 SWAP1 PUSH1 0x4D JUMP JUMPDEST PUSH1 0x40 MLOAD DUP1 SWAP2 SUB SWAP1 RETURN JUMPDEST PUSH1 0x1 SLOAD DUP2 JUMP JUMPDEST SWAP1 DUP2 MSTORE PUSH1 0x20 ADD SWAP1 JUMP INVALID LOG2 PUSH5 0x6970667358 0x22 SLT KECCAK256 0xC2 0x27 0xBD DUP6 LOG0 0xE9 LT XOR SWAP8 DIV PUSH27 0xAD54E385F309B368E1D8A12384D12BC3E0FA4C968A64736F6C6343 STOP ADDMOD STOP STOP CALLER "},"methodIdentifiers":{"totalStorage()":"de6b897a"}},"storageLayout":{"storage":[{"astId":13,"contract":"contracts/Storage.sol:Storage","label":"storage_mapping","offset":0,"slot":"0","type":"t_mapping(t_uint256,t_struct(StorageElement)8_storage)"},{"astId":15,"contract":"contracts/Storage.sol:Storage","label":"totalStorage","offset":0,"slot":"1","type":"t_uint256"}],"types":{"t_mapping(t_uint256,t_struct(StorageElement)8_storage)":{"encoding":"mapping","key":"t_uint256","label":"mapping(uint256 => struct Storage.StorageElement)","numberOfBytes":"32","value":"t_struct(StorageElement)8_storage"},"t_string_storage":{"encoding":"bytes","label":"string","numberOfBytes":"32"},"t_struct(StorageElement)8_storage":{"encoding":"inplace","label":"struct Storage.StorageElement","members":[{"astId":3,"contract":"contracts/Storage.sol:Storage","label":"event_id","offset":0,"slot":"0","type":"t_string_storage"},{"astId":5,"contract":"contracts/Storage.sol:Storage","label":"time","offset":0,"slot":"1","type":"t_uint256"},{"astId":7,"contract":"contracts/Storage.sol:Storage","label":"description","offset":0,"slot":"2","type":"t_string_storage"}],"numberOfBytes":"96"},"t_uint256":{"encoding":"inplace","label":"uint256","numberOfBytes":"32"}}}}}}