{"contracts/User.sol":{"User":{"abi":[{"inputs":[{"internalType":"string","name":"_username","type":"string"},{"internalType":"string","name":"_event_id","type":"string"},{"internalType":"uint256","name":"_time","type":"uint256"},{"internalType":"string","name":"_desc","type":"string"}],"name":"add_new_storage","outputs":[],"stateMutability":"nonpayable","type":"function"},{"inputs":[],"name":"get_all_devices","outputs":[{"internalType":"uint256[]","name":"","type":"uint256[]"}],"stateMutability":"view","type":"function"},{"inputs":[{"internalType":"string","name":"_username","type":"string"}],"name":"get_all_stores","outputs":[{"internalType":"uint256[]","name":"","type":"uint256[]"}],"stateMutability":"view","type":"function"},{"inputs":[{"internalType":"string","name":"_username","type":"string"}],"name":"get_device_by_username","outputs":[{"components":[{"internalType":"uint256","name":"id","type":"uint256"},{"internalType":"string","name":"device_name","type":"string"},{"internalType":"string","name":"device_endpoint","type":"string"},{"internalType":"uint256[]","name":"store","type":"uint256[]"}],"internalType":"struct User.Devices","name":"","type":"tuple"}],"stateMutability":"view","type":"function"},{"inputs":[{"internalType":"uint256","name":"_id","type":"uint256"}],"name":"get_store_by_id","outputs":[{"components":[{"internalType":"string","name":"event_id","type":"string"},{"internalType":"uint256","name":"time","type":"uint256"},{"internalType":"string","name":"description","type":"string"}],"internalType":"struct Storage.StorageElement","name":"","type":"tuple"}],"stateMutability":"view","type":"function"},{"inputs":[{"internalType":"uint256","name":"_id","type":"uint256"},{"internalType":"string","name":"_name","type":"string"}],"name":"initializer","outputs":[],"stateMutability":"nonpayable","type":"function"},{"inputs":[{"internalType":"string","name":"_name","type":"string"},{"internalType":"string","name":"_username","type":"string"},{"internalType":"string","name":"_device_endpoint","type":"string"}],"name":"new_device","outputs":[{"internalType":"uint256","name":"","type":"uint256"}],"stateMutability":"nonpayable","type":"function"},{"inputs":[],"name":"totalStorage","outputs":[{"internalType":"uint256","name":"","type":"uint256"}],"stateMutability":"view","type":"function"}],"evm":{"bytecode":{"linkReferences":{},"object":"608060405234801561001057600080fd5b50610c90806100206000396000f3fe608060405234801561001057600080fd5b50600436106100885760003560e01c8063bdcb27131161005b578063bdcb27131461010b578063ce8d8ae214610120578063d1e878e614610133578063de6b897a1461014657610088565b80631042d2681461008d5780632222e4ff146100b65780636555c719146100cb5780637d2e6bd5146100eb575b600080fd5b6100a061009b366004610897565b61014e565b6040516100ad9190610b88565b60405180910390f35b6100c96100c43660046109c1565b6101f7565b005b6100de6100d93660046109a9565b61021e565b6040516100ad9190610b45565b6100fe6100f936600461085c565b610235565b6040516100ad9190610ab6565b6101136103f3565b6040516100ad9190610a4e565b6100c961012e36600461091b565b61044b565b61011361014136600461085c565b61049d565b6100a0610510565b6000806005846040516101619190610a32565b90815260200160405180910390209050848160010190805190602001906101899291906106f9565b50600654815582516101a490600283019060208601906106f9565b50600680546004805460018101825560009182527f8a35acfbc15ff81a39ae7d344fd709f28e8600b4aa8c65c6b64bfe7fe36bd19b018290559091906101e983610c13565b909155505054949350505050565b60006001819055600655600282905580516102199060039060208401906106f9565b505050565b61022661077d565b61022f82610516565b92915050565b61023d61079e565b60058260405161024d9190610a32565b90815260200160405180910390206040518060800160405290816000820154815260200160018201805461028090610bd8565b80601f01602080910402602001604051908101604052809291908181526020018280546102ac90610bd8565b80156102f95780601f106102ce576101008083540402835291602001916102f9565b820191906000526020600020905b8154815290600101906020018083116102dc57829003601f168201915b5050505050815260200160028201805461031290610bd8565b80601f016020809104026020016040519081016040528092919081815260200182805461033e90610bd8565b801561038b5780601f106103605761010080835404028352916020019161038b565b820191906000526020600020905b81548152906001019060200180831161036e57829003601f168201915b50505050508152602001600382018054806020026020016040519081016040528092919081815260200182805480156103e357602002820191906000526020600020905b8154815260200190600101908083116103cf575b5050505050815250509050919050565b6060600480548060200260200160405190810160405280929190818152602001828054801561044157602002820191906000526020600020905b81548152602001906001019080831161042d575b5050505050905090565b600060058560405161045d9190610a32565b90815260200160405180910390209050600061047a85858561068c565b600390920180546001810182556000918252602090912001919091555050505050565b60606005826040516104af9190610a32565b908152604080519182900360209081018320600301805480830285018301909352828452919083018282801561050457602002820191906000526020600020905b8154815260200190600101908083116104f0575b50505050509050919050565b60015481565b61051e61077d565b60015482106105485760405162461bcd60e51b815260040161053f90610a92565b60405180910390fd5b6000828152602081905260409081902081516060810190925280548290829061057090610bd8565b80601f016020809104026020016040519081016040528092919081815260200182805461059c90610bd8565b80156105e95780601f106105be576101008083540402835291602001916105e9565b820191906000526020600020905b8154815290600101906020018083116105cc57829003601f168201915b505050505081526020016001820154815260200160028201805461060c90610bd8565b80601f016020809104026020016040519081016040528092919081815260200182805461063890610bd8565b80156103e35780601f1061065a576101008083540402835291602001916103e3565b820191906000526020600020905b81548152906001019060200180831161066857505050919092525091949350505050565b6001546000908152602081815260408220855190916106af9183918801906106f9565b506001810184905582516106cc90600283019060208601906106f9565b50600180549060006106dd83610c13565b9190505550600180546106f09190610b91565b95945050505050565b82805461070590610bd8565b90600052602060002090601f016020900481019282610727576000855561076d565b82601f1061074057805160ff191683800117855561076d565b8280016001018555821561076d579182015b8281111561076d578251825591602001919060010190610752565b506107799291506107c6565b5090565b60405180606001604052806060815260200160008152602001606081525090565b6040518060800160405280600081526020016060815260200160608152602001606081525090565b5b8082111561077957600081556001016107c7565b600082601f8301126107eb578081fd5b813567ffffffffffffffff8082111561080657610806610c44565b604051601f8301601f19168101602001828111828210171561082a5761082a610c44565b604052828152848301602001861015610841578384fd5b82602086016020830137918201602001929092529392505050565b60006020828403121561086d578081fd5b813567ffffffffffffffff811115610883578182fd5b61088f848285016107db565b949350505050565b6000806000606084860312156108ab578182fd5b833567ffffffffffffffff808211156108c2578384fd5b6108ce878388016107db565b945060208601359150808211156108e3578384fd5b6108ef878388016107db565b93506040860135915080821115610904578283fd5b50610911868287016107db565b9150509250925092565b60008060008060808587031215610930578081fd5b843567ffffffffffffffff80821115610947578283fd5b610953888389016107db565b95506020870135915080821115610968578283fd5b610974888389016107db565b9450604087013593506060870135915080821115610990578283fd5b5061099d878288016107db565b91505092959194509250565b6000602082840312156109ba578081fd5b5035919050565b600080604083850312156109d3578182fd5b82359150602083013567ffffffffffffffff8111156109f0578182fd5b6109fc858286016107db565b9150509250929050565b60008151808452610a1e816020860160208601610ba8565b601f01601f19169290920160200192915050565b60008251610a44818460208701610ba8565b9190910192915050565b6020808252825182820181905260009190848201906040850190845b81811015610a8657835183529284019291840191600101610a6a565b50909695505050505050565b6020808252600a9082015269125b9d985b1a5908125160b21b604082015260600190565b600060208083528351818401528084015160806040850152610adb60a0850182610a06565b90506040850151601f1980868403016060870152610af98383610a06565b60608801518782039092016080880152815180825291850193508592508401905b80831015610b3a5783518252928401926001929092019190840190610b1a565b509695505050505050565b600060208252825160606020840152610b616080840182610a06565b9050602084015160408401526040840151601f198483030160608501526106f08282610a06565b90815260200190565b600082821015610ba357610ba3610c2e565b500390565b60005b83811015610bc3578181015183820152602001610bab565b83811115610bd2576000848401525b50505050565b600281046001821680610bec57607f821691505b60208210811415610c0d57634e487b7160e01b600052602260045260246000fd5b50919050565b6000600019821415610c2757610c27610c2e565b5060010190565b634e487b7160e01b600052601160045260246000fd5b634e487b7160e01b600052604160045260246000fdfea264697066735822122032efaea87706945c7994d02759477415889adfb1e816c2ffd67088e45637e28464736f6c63430008000033","opcodes":"PUSH1 0x80 PUSH1 0x40 MSTORE CALLVALUE DUP1 ISZERO PUSH2 0x10 JUMPI PUSH1 0x0 DUP1 REVERT JUMPDEST POP PUSH2 0xC90 DUP1 PUSH2 0x20 PUSH1 0x0 CODECOPY PUSH1 0x0 RETURN INVALID PUSH1 0x80 PUSH1 0x40 MSTORE CALLVALUE DUP1 ISZERO PUSH2 0x10 JUMPI PUSH1 0x0 DUP1 REVERT JUMPDEST POP PUSH1 0x4 CALLDATASIZE LT PUSH2 0x88 JUMPI PUSH1 0x0 CALLDATALOAD PUSH1 0xE0 SHR DUP1 PUSH4 0xBDCB2713 GT PUSH2 0x5B JUMPI DUP1 PUSH4 0xBDCB2713 EQ PUSH2 0x10B JUMPI DUP1 PUSH4 0xCE8D8AE2 EQ PUSH2 0x120 JUMPI DUP1 PUSH4 0xD1E878E6 EQ PUSH2 0x133 JUMPI DUP1 PUSH4 0xDE6B897A EQ PUSH2 0x146 JUMPI PUSH2 0x88 JUMP JUMPDEST DUP1 PUSH4 0x1042D268 EQ PUSH2 0x8D JUMPI DUP1 PUSH4 0x2222E4FF EQ PUSH2 0xB6 JUMPI DUP1 PUSH4 0x6555C719 EQ PUSH2 0xCB JUMPI DUP1 PUSH4 0x7D2E6BD5 EQ PUSH2 0xEB JUMPI JUMPDEST PUSH1 0x0 DUP1 REVERT JUMPDEST PUSH2 0xA0 PUSH2 0x9B CALLDATASIZE PUSH1 0x4 PUSH2 0x897 JUMP JUMPDEST PUSH2 0x14E JUMP JUMPDEST PUSH1 0x40 MLOAD PUSH2 0xAD SWAP2 SWAP1 PUSH2 0xB88 JUMP JUMPDEST PUSH1 0x40 MLOAD DUP1 SWAP2 SUB SWAP1 RETURN JUMPDEST PUSH2 0xC9 PUSH2 0xC4 CALLDATASIZE PUSH1 0x4 PUSH2 0x9C1 JUMP JUMPDEST PUSH2 0x1F7 JUMP JUMPDEST STOP JUMPDEST PUSH2 0xDE PUSH2 0xD9 CALLDATASIZE PUSH1 0x4 PUSH2 0x9A9 JUMP JUMPDEST PUSH2 0x21E JUMP JUMPDEST PUSH1 0x40 MLOAD PUSH2 0xAD SWAP2 SWAP1 PUSH2 0xB45 JUMP JUMPDEST PUSH2 0xFE PUSH2 0xF9 CALLDATASIZE PUSH1 0x4 PUSH2 0x85C JUMP JUMPDEST PUSH2 0x235 JUMP JUMPDEST PUSH1 0x40 MLOAD PUSH2 0xAD SWAP2 SWAP1 PUSH2 0xAB6 JUMP JUMPDEST PUSH2 0x113 PUSH2 0x3F3 JUMP JUMPDEST PUSH1 0x40 MLOAD PUSH2 0xAD SWAP2 SWAP1 PUSH2 0xA4E JUMP JUMPDEST PUSH2 0xC9 PUSH2 0x12E CALLDATASIZE PUSH1 0x4 PUSH2 0x91B JUMP JUMPDEST PUSH2 0x44B JUMP JUMPDEST PUSH2 0x113 PUSH2 0x141 CALLDATASIZE PUSH1 0x4 PUSH2 0x85C JUMP JUMPDEST PUSH2 0x49D JUMP JUMPDEST PUSH2 0xA0 PUSH2 0x510 JUMP JUMPDEST PUSH1 0x0 DUP1 PUSH1 0x5 DUP5 PUSH1 0x40 MLOAD PUSH2 0x161 SWAP2 SWAP1 PUSH2 0xA32 JUMP JUMPDEST SWAP1 DUP2 MSTORE PUSH1 0x20 ADD PUSH1 0x40 MLOAD DUP1 SWAP2 SUB SWAP1 KECCAK256 SWAP1 POP DUP5 DUP2 PUSH1 0x1 ADD SWAP1 DUP1 MLOAD SWAP1 PUSH1 0x20 ADD SWAP1 PUSH2 0x189 SWAP3 SWAP2 SWAP1 PUSH2 0x6F9 JUMP JUMPDEST POP PUSH1 0x6 SLOAD DUP2 SSTORE DUP3 MLOAD PUSH2 0x1A4 SWAP1 PUSH1 0x2 DUP4 ADD SWAP1 PUSH1 0x20 DUP7 ADD SWAP1 PUSH2 0x6F9 JUMP JUMPDEST POP PUSH1 0x6 DUP1 SLOAD PUSH1 0x4 DUP1 SLOAD PUSH1 0x1 DUP2 ADD DUP3 SSTORE PUSH1 0x0 SWAP2 DUP3 MSTORE PUSH32 0x8A35ACFBC15FF81A39AE7D344FD709F28E8600B4AA8C65C6B64BFE7FE36BD19B ADD DUP3 SWAP1 SSTORE SWAP1 SWAP2 SWAP1 PUSH2 0x1E9 DUP4 PUSH2 0xC13 JUMP JUMPDEST SWAP1 SWAP2 SSTORE POP POP SLOAD SWAP5 SWAP4 POP POP POP POP JUMP JUMPDEST PUSH1 0x0 PUSH1 0x1 DUP2 SWAP1 SSTORE PUSH1 0x6 SSTORE PUSH1 0x2 DUP3 SWAP1 SSTORE DUP1 MLOAD PUSH2 0x219 SWAP1 PUSH1 0x3 SWAP1 PUSH1 0x20 DUP5 ADD SWAP1 PUSH2 0x6F9 JUMP JUMPDEST POP POP POP JUMP JUMPDEST PUSH2 0x226 PUSH2 0x77D JUMP JUMPDEST PUSH2 0x22F DUP3 PUSH2 0x516 JUMP JUMPDEST SWAP3 SWAP2 POP POP JUMP JUMPDEST PUSH2 0x23D PUSH2 0x79E JUMP JUMPDEST PUSH1 0x5 DUP3 PUSH1 0x40 MLOAD PUSH2 0x24D SWAP2 SWAP1 PUSH2 0xA32 JUMP JUMPDEST SWAP1 DUP2 MSTORE PUSH1 0x20 ADD PUSH1 0x40 MLOAD DUP1 SWAP2 SUB SWAP1 KECCAK256 PUSH1 0x40 MLOAD DUP1 PUSH1 0x80 ADD PUSH1 0x40 MSTORE SWAP1 DUP2 PUSH1 0x0 DUP3 ADD SLOAD DUP2 MSTORE PUSH1 0x20 ADD PUSH1 0x1 DUP3 ADD DUP1 SLOAD PUSH2 0x280 SWAP1 PUSH2 0xBD8 JUMP JUMPDEST DUP1 PUSH1 0x1F ADD PUSH1 0x20 DUP1 SWAP2 DIV MUL PUSH1 0x20 ADD PUSH1 0x40 MLOAD SWAP1 DUP2 ADD PUSH1 0x40 MSTORE DUP1 SWAP3 SWAP2 SWAP1 DUP2 DUP2 MSTORE PUSH1 0x20 ADD DUP3 DUP1 SLOAD PUSH2 0x2AC SWAP1 PUSH2 0xBD8 JUMP JUMPDEST DUP1 ISZERO PUSH2 0x2F9 JUMPI DUP1 PUSH1 0x1F LT PUSH2 0x2CE JUMPI PUSH2 0x100 DUP1 DUP4 SLOAD DIV MUL DUP4 MSTORE SWAP2 PUSH1 0x20 ADD SWAP2 PUSH2 0x2F9 JUMP JUMPDEST DUP3 ADD SWAP2 SWAP1 PUSH1 0x0 MSTORE PUSH1 0x20 PUSH1 0x0 KECCAK256 SWAP1 JUMPDEST DUP2 SLOAD DUP2 MSTORE SWAP1 PUSH1 0x1 ADD SWAP1 PUSH1 0x20 ADD DUP1 DUP4 GT PUSH2 0x2DC JUMPI DUP3 SWAP1 SUB PUSH1 0x1F AND DUP3 ADD SWAP2 JUMPDEST POP POP POP POP POP DUP2 MSTORE PUSH1 0x20 ADD PUSH1 0x2 DUP3 ADD DUP1 SLOAD PUSH2 0x312 SWAP1 PUSH2 0xBD8 JUMP JUMPDEST DUP1 PUSH1 0x1F ADD PUSH1 0x20 DUP1 SWAP2 DIV MUL PUSH1 0x20 ADD PUSH1 0x40 MLOAD SWAP1 DUP2 ADD PUSH1 0x40 MSTORE DUP1 SWAP3 SWAP2 SWAP1 DUP2 DUP2 MSTORE PUSH1 0x20 ADD DUP3 DUP1 SLOAD PUSH2 0x33E SWAP1 PUSH2 0xBD8 JUMP JUMPDEST DUP1 ISZERO PUSH2 0x38B JUMPI DUP1 PUSH1 0x1F LT PUSH2 0x360 JUMPI PUSH2 0x100 DUP1 DUP4 SLOAD DIV MUL DUP4 MSTORE SWAP2 PUSH1 0x20 ADD SWAP2 PUSH2 0x38B JUMP JUMPDEST DUP3 ADD SWAP2 SWAP1 PUSH1 0x0 MSTORE PUSH1 0x20 PUSH1 0x0 KECCAK256 SWAP1 JUMPDEST DUP2 SLOAD DUP2 MSTORE SWAP1 PUSH1 0x1 ADD SWAP1 PUSH1 0x20 ADD DUP1 DUP4 GT PUSH2 0x36E JUMPI DUP3 SWAP1 SUB PUSH1 0x1F AND DUP3 ADD SWAP2 JUMPDEST POP POP POP POP POP DUP2 MSTORE PUSH1 0x20 ADD PUSH1 0x3 DUP3 ADD DUP1 SLOAD DUP1 PUSH1 0x20 MUL PUSH1 0x20 ADD PUSH1 0x40 MLOAD SWAP1 DUP2 ADD PUSH1 0x40 MSTORE DUP1 SWAP3 SWAP2 SWAP1 DUP2 DUP2 MSTORE PUSH1 0x20 ADD DUP3 DUP1 SLOAD DUP1 ISZERO PUSH2 0x3E3 JUMPI PUSH1 0x20 MUL DUP3 ADD SWAP2 SWAP1 PUSH1 0x0 MSTORE PUSH1 0x20 PUSH1 0x0 KECCAK256 SWAP1 JUMPDEST DUP2 SLOAD DUP2 MSTORE PUSH1 0x20 ADD SWAP1 PUSH1 0x1 ADD SWAP1 DUP1 DUP4 GT PUSH2 0x3CF JUMPI JUMPDEST POP POP POP POP POP DUP2 MSTORE POP POP SWAP1 POP SWAP2 SWAP1 POP JUMP JUMPDEST PUSH1 0x60 PUSH1 0x4 DUP1 SLOAD DUP1 PUSH1 0x20 MUL PUSH1 0x20 ADD PUSH1 0x40 MLOAD SWAP1 DUP2 ADD PUSH1 0x40 MSTORE DUP1 SWAP3 SWAP2 SWAP1 DUP2 DUP2 MSTORE PUSH1 0x20 ADD DUP3 DUP1 SLOAD DUP1 ISZERO PUSH2 0x441 JUMPI PUSH1 0x20 MUL DUP3 ADD SWAP2 SWAP1 PUSH1 0x0 MSTORE PUSH1 0x20 PUSH1 0x0 KECCAK256 SWAP1 JUMPDEST DUP2 SLOAD DUP2 MSTORE PUSH1 0x20 ADD SWAP1 PUSH1 0x1 ADD SWAP1 DUP1 DUP4 GT PUSH2 0x42D JUMPI JUMPDEST POP POP POP POP POP SWAP1 POP SWAP1 JUMP JUMPDEST PUSH1 0x0 PUSH1 0x5 DUP6 PUSH1 0x40 MLOAD PUSH2 0x45D SWAP2 SWAP1 PUSH2 0xA32 JUMP JUMPDEST SWAP1 DUP2 MSTORE PUSH1 0x20 ADD PUSH1 0x40 MLOAD DUP1 SWAP2 SUB SWAP1 KECCAK256 SWAP1 POP PUSH1 0x0 PUSH2 0x47A DUP6 DUP6 DUP6 PUSH2 0x68C JUMP JUMPDEST PUSH1 0x3 SWAP1 SWAP3 ADD DUP1 SLOAD PUSH1 0x1 DUP2 ADD DUP3 SSTORE PUSH1 0x0 SWAP2 DUP3 MSTORE PUSH1 0x20 SWAP1 SWAP2 KECCAK256 ADD SWAP2 SWAP1 SWAP2 SSTORE POP POP POP POP POP JUMP JUMPDEST PUSH1 0x60 PUSH1 0x5 DUP3 PUSH1 0x40 MLOAD PUSH2 0x4AF SWAP2 SWAP1 PUSH2 0xA32 JUMP JUMPDEST SWAP1 DUP2 MSTORE PUSH1 0x40 DUP1 MLOAD SWAP2 DUP3 SWAP1 SUB PUSH1 0x20 SWAP1 DUP2 ADD DUP4 KECCAK256 PUSH1 0x3 ADD DUP1 SLOAD DUP1 DUP4 MUL DUP6 ADD DUP4 ADD SWAP1 SWAP4 MSTORE DUP3 DUP5 MSTORE SWAP2 SWAP1 DUP4 ADD DUP3 DUP3 DUP1 ISZERO PUSH2 0x504 JUMPI PUSH1 0x20 MUL DUP3 ADD SWAP2 SWAP1 PUSH1 0x0 MSTORE PUSH1 0x20 PUSH1 0x0 KECCAK256 SWAP1 JUMPDEST DUP2 SLOAD DUP2 MSTORE PUSH1 0x20 ADD SWAP1 PUSH1 0x1 ADD SWAP1 DUP1 DUP4 GT PUSH2 0x4F0 JUMPI JUMPDEST POP POP POP POP POP SWAP1 POP SWAP2 SWAP1 POP JUMP JUMPDEST PUSH1 0x1 SLOAD DUP2 JUMP JUMPDEST PUSH2 0x51E PUSH2 0x77D JUMP JUMPDEST PUSH1 0x1 SLOAD DUP3 LT PUSH2 0x548 JUMPI PUSH1 0x40 MLOAD PUSH3 0x461BCD PUSH1 0xE5 SHL DUP2 MSTORE PUSH1 0x4 ADD PUSH2 0x53F SWAP1 PUSH2 0xA92 JUMP JUMPDEST PUSH1 0x40 MLOAD DUP1 SWAP2 SUB SWAP1 REVERT JUMPDEST PUSH1 0x0 DUP3 DUP2 MSTORE PUSH1 0x20 DUP2 SWAP1 MSTORE PUSH1 0x40 SWAP1 DUP2 SWAP1 KECCAK256 DUP2 MLOAD PUSH1 0x60 DUP2 ADD SWAP1 SWAP3 MSTORE DUP1 SLOAD DUP3 SWAP1 DUP3 SWAP1 PUSH2 0x570 SWAP1 PUSH2 0xBD8 JUMP JUMPDEST DUP1 PUSH1 0x1F ADD PUSH1 0x20 DUP1 SWAP2 DIV MUL PUSH1 0x20 ADD PUSH1 0x40 MLOAD SWAP1 DUP2 ADD PUSH1 0x40 MSTORE DUP1 SWAP3 SWAP2 SWAP1 DUP2 DUP2 MSTORE PUSH1 0x20 ADD DUP3 DUP1 SLOAD PUSH2 0x59C SWAP1 PUSH2 0xBD8 JUMP JUMPDEST DUP1 ISZERO PUSH2 0x5E9 JUMPI DUP1 PUSH1 0x1F LT PUSH2 0x5BE JUMPI PUSH2 0x100 DUP1 DUP4 SLOAD DIV MUL DUP4 MSTORE SWAP2 PUSH1 0x20 ADD SWAP2 PUSH2 0x5E9 JUMP JUMPDEST DUP3 ADD SWAP2 SWAP1 PUSH1 0x0 MSTORE PUSH1 0x20 PUSH1 0x0 KECCAK256 SWAP1 JUMPDEST DUP2 SLOAD DUP2 MSTORE SWAP1 PUSH1 0x1 ADD SWAP1 PUSH1 0x20 ADD DUP1 DUP4 GT PUSH2 0x5CC JUMPI DUP3 SWAP1 SUB PUSH1 0x1F AND DUP3 ADD SWAP2 JUMPDEST POP POP POP POP POP DUP2 MSTORE PUSH1 0x20 ADD PUSH1 0x1 DUP3 ADD SLOAD DUP2 MSTORE PUSH1 0x20 ADD PUSH1 0x2 DUP3 ADD DUP1 SLOAD PUSH2 0x60C SWAP1 PUSH2 0xBD8 JUMP JUMPDEST DUP1 PUSH1 0x1F ADD PUSH1 0x20 DUP1 SWAP2 DIV MUL PUSH1 0x20 ADD PUSH1 0x40 MLOAD SWAP1 DUP2 ADD PUSH1 0x40 MSTORE DUP1 SWAP3 SWAP2 SWAP1 DUP2 DUP2 MSTORE PUSH1 0x20 ADD DUP3 DUP1 SLOAD PUSH2 0x638 SWAP1 PUSH2 0xBD8 JUMP JUMPDEST DUP1 ISZERO PUSH2 0x3E3 JUMPI DUP1 PUSH1 0x1F LT PUSH2 0x65A JUMPI PUSH2 0x100 DUP1 DUP4 SLOAD DIV MUL DUP4 MSTORE SWAP2 PUSH1 0x20 ADD SWAP2 PUSH2 0x3E3 JUMP JUMPDEST DUP3 ADD SWAP2 SWAP1 PUSH1 0x0 MSTORE PUSH1 0x20 PUSH1 0x0 KECCAK256 SWAP1 JUMPDEST DUP2 SLOAD DUP2 MSTORE SWAP1 PUSH1 0x1 ADD SWAP1 PUSH1 0x20 ADD DUP1 DUP4 GT PUSH2 0x668 JUMPI POP POP POP SWAP2 SWAP1 SWAP3 MSTORE POP SWAP2 SWAP5 SWAP4 POP POP POP POP JUMP JUMPDEST PUSH1 0x1 SLOAD PUSH1 0x0 SWAP1 DUP2 MSTORE PUSH1 0x20 DUP2 DUP2 MSTORE PUSH1 0x40 DUP3 KECCAK256 DUP6 MLOAD SWAP1 SWAP2 PUSH2 0x6AF SWAP2 DUP4 SWAP2 DUP9 ADD SWAP1 PUSH2 0x6F9 JUMP JUMPDEST POP PUSH1 0x1 DUP2 ADD DUP5 SWAP1 SSTORE DUP3 MLOAD PUSH2 0x6CC SWAP1 PUSH1 0x2 DUP4 ADD SWAP1 PUSH1 0x20 DUP7 ADD SWAP1 PUSH2 0x6F9 JUMP JUMPDEST POP PUSH1 0x1 DUP1 SLOAD SWAP1 PUSH1 0x0 PUSH2 0x6DD DUP4 PUSH2 0xC13 JUMP JUMPDEST SWAP2 SWAP1 POP SSTORE POP PUSH1 0x1 DUP1 SLOAD PUSH2 0x6F0 SWAP2 SWAP1 PUSH2 0xB91 JUMP JUMPDEST SWAP6 SWAP5 POP POP POP POP POP JUMP JUMPDEST DUP3 DUP1 SLOAD PUSH2 0x705 SWAP1 PUSH2 0xBD8 JUMP JUMPDEST SWAP1 PUSH1 0x0 MSTORE PUSH1 0x20 PUSH1 0x0 KECCAK256 SWAP1 PUSH1 0x1F ADD PUSH1 0x20 SWAP1 DIV DUP2 ADD SWAP3 DUP3 PUSH2 0x727 JUMPI PUSH1 0x0 DUP6 SSTORE PUSH2 0x76D JUMP JUMPDEST DUP3 PUSH1 0x1F LT PUSH2 0x740 JUMPI DUP1 MLOAD PUSH1 0xFF NOT AND DUP4 DUP1 ADD OR DUP6 SSTORE PUSH2 0x76D JUMP JUMPDEST DUP3 DUP1 ADD PUSH1 0x1 ADD DUP6 SSTORE DUP3 ISZERO PUSH2 0x76D JUMPI SWAP2 DUP3 ADD JUMPDEST DUP3 DUP2 GT ISZERO PUSH2 0x76D JUMPI DUP3 MLOAD DUP3 SSTORE SWAP2 PUSH1 0x20 ADD SWAP2 SWAP1 PUSH1 0x1 ADD SWAP1 PUSH2 0x752 JUMP JUMPDEST POP PUSH2 0x779 SWAP3 SWAP2 POP PUSH2 0x7C6 JUMP JUMPDEST POP SWAP1 JUMP JUMPDEST PUSH1 0x40 MLOAD DUP1 PUSH1 0x60 ADD PUSH1 0x40 MSTORE DUP1 PUSH1 0x60 DUP2 MSTORE PUSH1 0x20 ADD PUSH1 0x0 DUP2 MSTORE PUSH1 0x20 ADD PUSH1 0x60 DUP2 MSTORE POP SWAP1 JUMP JUMPDEST PUSH1 0x40 MLOAD DUP1 PUSH1 0x80 ADD PUSH1 0x40 MSTORE DUP1 PUSH1 0x0 DUP2 MSTORE PUSH1 0x20 ADD PUSH1 0x60 DUP2 MSTORE PUSH1 0x20 ADD PUSH1 0x60 DUP2 MSTORE PUSH1 0x20 ADD PUSH1 0x60 DUP2 MSTORE POP SWAP1 JUMP JUMPDEST JUMPDEST DUP1 DUP3 GT ISZERO PUSH2 0x779 JUMPI PUSH1 0x0 DUP2 SSTORE PUSH1 0x1 ADD PUSH2 0x7C7 JUMP JUMPDEST PUSH1 0x0 DUP3 PUSH1 0x1F DUP4 ADD SLT PUSH2 0x7EB JUMPI DUP1 DUP2 REVERT JUMPDEST DUP2 CALLDATALOAD PUSH8 0xFFFFFFFFFFFFFFFF DUP1 DUP3 GT ISZERO PUSH2 0x806 JUMPI PUSH2 0x806 PUSH2 0xC44 JUMP JUMPDEST PUSH1 0x40 MLOAD PUSH1 0x1F DUP4 ADD PUSH1 0x1F NOT AND DUP2 ADD PUSH1 0x20 ADD DUP3 DUP2 GT DUP3 DUP3 LT OR ISZERO PUSH2 0x82A JUMPI PUSH2 0x82A PUSH2 0xC44 JUMP JUMPDEST PUSH1 0x40 MSTORE DUP3 DUP2 MSTORE DUP5 DUP4 ADD PUSH1 0x20 ADD DUP7 LT ISZERO PUSH2 0x841 JUMPI DUP4 DUP5 REVERT JUMPDEST DUP3 PUSH1 0x20 DUP7 ADD PUSH1 0x20 DUP4 ADD CALLDATACOPY SWAP2 DUP3 ADD PUSH1 0x20 ADD SWAP3 SWAP1 SWAP3 MSTORE SWAP4 SWAP3 POP POP POP JUMP JUMPDEST PUSH1 0x0 PUSH1 0x20 DUP3 DUP5 SUB SLT ISZERO PUSH2 0x86D JUMPI DUP1 DUP2 REVERT JUMPDEST DUP2 CALLDATALOAD PUSH8 0xFFFFFFFFFFFFFFFF DUP2 GT ISZERO PUSH2 0x883 JUMPI DUP2 DUP3 REVERT JUMPDEST PUSH2 0x88F DUP5 DUP3 DUP6 ADD PUSH2 0x7DB JUMP JUMPDEST SWAP5 SWAP4 POP POP POP POP JUMP JUMPDEST PUSH1 0x0 DUP1 PUSH1 0x0 PUSH1 0x60 DUP5 DUP7 SUB SLT ISZERO PUSH2 0x8AB JUMPI DUP2 DUP3 REVERT JUMPDEST DUP4 CALLDATALOAD PUSH8 0xFFFFFFFFFFFFFFFF DUP1 DUP3 GT ISZERO PUSH2 0x8C2 JUMPI DUP4 DUP5 REVERT JUMPDEST PUSH2 0x8CE DUP8 DUP4 DUP9 ADD PUSH2 0x7DB JUMP JUMPDEST SWAP5 POP PUSH1 0x20 DUP7 ADD CALLDATALOAD SWAP2 POP DUP1 DUP3 GT ISZERO PUSH2 0x8E3 JUMPI DUP4 DUP5 REVERT JUMPDEST PUSH2 0x8EF DUP8 DUP4 DUP9 ADD PUSH2 0x7DB JUMP JUMPDEST SWAP4 POP PUSH1 0x40 DUP7 ADD CALLDATALOAD SWAP2 POP DUP1 DUP3 GT ISZERO PUSH2 0x904 JUMPI DUP3 DUP4 REVERT JUMPDEST POP PUSH2 0x911 DUP7 DUP3 DUP8 ADD PUSH2 0x7DB JUMP JUMPDEST SWAP2 POP POP SWAP3 POP SWAP3 POP SWAP3 JUMP JUMPDEST PUSH1 0x0 DUP1 PUSH1 0x0 DUP1 PUSH1 0x80 DUP6 DUP8 SUB SLT ISZERO PUSH2 0x930 JUMPI DUP1 DUP2 REVERT JUMPDEST DUP5 CALLDATALOAD PUSH8 0xFFFFFFFFFFFFFFFF DUP1 DUP3 GT ISZERO PUSH2 0x947 JUMPI DUP3 DUP4 REVERT JUMPDEST PUSH2 0x953 DUP9 DUP4 DUP10 ADD PUSH2 0x7DB JUMP JUMPDEST SWAP6 POP PUSH1 0x20 DUP8 ADD CALLDATALOAD SWAP2 POP DUP1 DUP3 GT ISZERO PUSH2 0x968 JUMPI DUP3 DUP4 REVERT JUMPDEST PUSH2 0x974 DUP9 DUP4 DUP10 ADD PUSH2 0x7DB JUMP JUMPDEST SWAP5 POP PUSH1 0x40 DUP8 ADD CALLDATALOAD SWAP4 POP PUSH1 0x60 DUP8 ADD CALLDATALOAD SWAP2 POP DUP1 DUP3 GT ISZERO PUSH2 0x990 JUMPI DUP3 DUP4 REVERT JUMPDEST POP PUSH2 0x99D DUP8 DUP3 DUP9 ADD PUSH2 0x7DB JUMP JUMPDEST SWAP2 POP POP SWAP3 SWAP6 SWAP2 SWAP5 POP SWAP3 POP JUMP JUMPDEST PUSH1 0x0 PUSH1 0x20 DUP3 DUP5 SUB SLT ISZERO PUSH2 0x9BA JUMPI DUP1 DUP2 REVERT JUMPDEST POP CALLDATALOAD SWAP2 SWAP1 POP JUMP JUMPDEST PUSH1 0x0 DUP1 PUSH1 0x40 DUP4 DUP6 SUB SLT ISZERO PUSH2 0x9D3 JUMPI DUP2 DUP3 REVERT JUMPDEST DUP3 CALLDATALOAD SWAP2 POP PUSH1 0x20 DUP4 ADD CALLDATALOAD PUSH8 0xFFFFFFFFFFFFFFFF DUP2 GT ISZERO PUSH2 0x9F0 JUMPI DUP2 DUP3 REVERT JUMPDEST PUSH2 0x9FC DUP6 DUP3 DUP7 ADD PUSH2 0x7DB JUMP JUMPDEST SWAP2 POP POP SWAP3 POP SWAP3 SWAP1 POP JUMP JUMPDEST PUSH1 0x0 DUP2 MLOAD DUP1 DUP5 MSTORE PUSH2 0xA1E DUP2 PUSH1 0x20 DUP7 ADD PUSH1 0x20 DUP7 ADD PUSH2 0xBA8 JUMP JUMPDEST PUSH1 0x1F ADD PUSH1 0x1F NOT AND SWAP3 SWAP1 SWAP3 ADD PUSH1 0x20 ADD SWAP3 SWAP2 POP POP JUMP JUMPDEST PUSH1 0x0 DUP3 MLOAD PUSH2 0xA44 DUP2 DUP5 PUSH1 0x20 DUP8 ADD PUSH2 0xBA8 JUMP JUMPDEST SWAP2 SWAP1 SWAP2 ADD SWAP3 SWAP2 POP POP JUMP JUMPDEST PUSH1 0x20 DUP1 DUP3 MSTORE DUP3 MLOAD DUP3 DUP3 ADD DUP2 SWAP1 MSTORE PUSH1 0x0 SWAP2 SWAP1 DUP5 DUP3 ADD SWAP1 PUSH1 0x40 DUP6 ADD SWAP1 DUP5 JUMPDEST DUP2 DUP2 LT ISZERO PUSH2 0xA86 JUMPI DUP4 MLOAD DUP4 MSTORE SWAP3 DUP5 ADD SWAP3 SWAP2 DUP5 ADD SWAP2 PUSH1 0x1 ADD PUSH2 0xA6A JUMP JUMPDEST POP SWAP1 SWAP7 SWAP6 POP POP POP POP POP POP JUMP JUMPDEST PUSH1 0x20 DUP1 DUP3 MSTORE PUSH1 0xA SWAP1 DUP3 ADD MSTORE PUSH10 0x125B9D985B1A59081251 PUSH1 0xB2 SHL PUSH1 0x40 DUP3 ADD MSTORE PUSH1 0x60 ADD SWAP1 JUMP JUMPDEST PUSH1 0x0 PUSH1 0x20 DUP1 DUP4 MSTORE DUP4 MLOAD DUP2 DUP5 ADD MSTORE DUP1 DUP5 ADD MLOAD PUSH1 0x80 PUSH1 0x40 DUP6 ADD MSTORE PUSH2 0xADB PUSH1 0xA0 DUP6 ADD DUP3 PUSH2 0xA06 JUMP JUMPDEST SWAP1 POP PUSH1 0x40 DUP6 ADD MLOAD PUSH1 0x1F NOT DUP1 DUP7 DUP5 SUB ADD PUSH1 0x60 DUP8 ADD MSTORE PUSH2 0xAF9 DUP4 DUP4 PUSH2 0xA06 JUMP JUMPDEST PUSH1 0x60 DUP9 ADD MLOAD DUP8 DUP3 SUB SWAP1 SWAP3 ADD PUSH1 0x80 DUP9 ADD MSTORE DUP2 MLOAD DUP1 DUP3 MSTORE SWAP2 DUP6 ADD SWAP4 POP DUP6 SWAP3 POP DUP5 ADD SWAP1 JUMPDEST DUP1 DUP4 LT ISZERO PUSH2 0xB3A JUMPI DUP4 MLOAD DUP3 MSTORE SWAP3 DUP5 ADD SWAP3 PUSH1 0x1 SWAP3 SWAP1 SWAP3 ADD SWAP2 SWAP1 DUP5 ADD SWAP1 PUSH2 0xB1A JUMP JUMPDEST POP SWAP7 SWAP6 POP POP POP POP POP POP JUMP JUMPDEST PUSH1 0x0 PUSH1 0x20 DUP3 MSTORE DUP3 MLOAD PUSH1 0x60 PUSH1 0x20 DUP5 ADD MSTORE PUSH2 0xB61 PUSH1 0x80 DUP5 ADD DUP3 PUSH2 0xA06 JUMP JUMPDEST SWAP1 POP PUSH1 0x20 DUP5 ADD MLOAD PUSH1 0x40 DUP5 ADD MSTORE PUSH1 0x40 DUP5 ADD MLOAD PUSH1 0x1F NOT DUP5 DUP4 SUB ADD PUSH1 0x60 DUP6 ADD MSTORE PUSH2 0x6F0 DUP3 DUP3 PUSH2 0xA06 JUMP JUMPDEST SWAP1 DUP2 MSTORE PUSH1 0x20 ADD SWAP1 JUMP JUMPDEST PUSH1 0x0 DUP3 DUP3 LT ISZERO PUSH2 0xBA3 JUMPI PUSH2 0xBA3 PUSH2 0xC2E JUMP JUMPDEST POP SUB SWAP1 JUMP JUMPDEST PUSH1 0x0 JUMPDEST DUP4 DUP2 LT ISZERO PUSH2 0xBC3 JUMPI DUP2 DUP2 ADD MLOAD DUP4 DUP3 ADD MSTORE PUSH1 0x20 ADD PUSH2 0xBAB JUMP JUMPDEST DUP4 DUP2 GT ISZERO PUSH2 0xBD2 JUMPI PUSH1 0x0 DUP5 DUP5 ADD MSTORE JUMPDEST POP POP POP POP JUMP JUMPDEST PUSH1 0x2 DUP2 DIV PUSH1 0x1 DUP3 AND DUP1 PUSH2 0xBEC JUMPI PUSH1 0x7F DUP3 AND SWAP2 POP JUMPDEST PUSH1 0x20 DUP3 LT DUP2 EQ ISZERO PUSH2 0xC0D JUMPI PUSH4 0x4E487B71 PUSH1 0xE0 SHL PUSH1 0x0 MSTORE PUSH1 0x22 PUSH1 0x4 MSTORE PUSH1 0x24 PUSH1 0x0 REVERT JUMPDEST POP SWAP2 SWAP1 POP JUMP JUMPDEST PUSH1 0x0 PUSH1 0x0 NOT DUP3 EQ ISZERO PUSH2 0xC27 JUMPI PUSH2 0xC27 PUSH2 0xC2E JUMP JUMPDEST POP PUSH1 0x1 ADD SWAP1 JUMP JUMPDEST PUSH4 0x4E487B71 PUSH1 0xE0 SHL PUSH1 0x0 MSTORE PUSH1 0x11 PUSH1 0x4 MSTORE PUSH1 0x24 PUSH1 0x0 REVERT JUMPDEST PUSH4 0x4E487B71 PUSH1 0xE0 SHL PUSH1 0x0 MSTORE PUSH1 0x41 PUSH1 0x4 MSTORE PUSH1 0x24 PUSH1 0x0 REVERT INVALID LOG2 PUSH5 0x6970667358 0x22 SLT KECCAK256 ORIGIN 0xEF 0xAE 0xA8 PUSH24 0x6945C7994D02759477415889ADFB1E816C2FFD67088E456 CALLDATACOPY 0xE2 DUP5 PUSH5 0x736F6C6343 STOP ADDMOD STOP STOP CALLER "},"methodIdentifiers":{"add_new_storage(string,string,uint256,string)":"ce8d8ae2","get_all_devices()":"bdcb2713","get_all_stores(string)":"d1e878e6","get_device_by_username(string)":"7d2e6bd5","get_store_by_id(uint256)":"6555c719","initializer(uint256,string)":"2222e4ff","new_device(string,string,string)":"1042d268","totalStorage()":"de6b897a"}},"storageLayout":{"storage":[{"astId":13,"contract":"contracts/User.sol:User","label":"storage_mapping","offset":0,"slot":"0","type":"t_mapping(t_uint256,t_struct(StorageElement)8_storage)"},{"astId":15,"contract":"contracts/User.sol:User","label":"totalStorage","offset":0,"slot":"1","type":"t_uint256"},{"astId":87,"contract":"contracts/User.sol:User","label":"id","offset":0,"slot":"2","type":"t_uint256"},{"astId":89,"contract":"contracts/User.sol:User","label":"name","offset":0,"slot":"3","type":"t_string_storage"},{"astId":92,"contract":"contracts/User.sol:User","label":"devices","offset":0,"slot":"4","type":"t_array(t_uint256)dyn_storage"},{"astId":107,"contract":"contracts/User.sol:User","label":"user_devices","offset":0,"slot":"5","type":"t_mapping(t_string_memory_ptr,t_struct(Devices)102_storage)"},{"astId":109,"contract":"contracts/User.sol:User","label":"totalDevices","offset":0,"slot":"6","type":"t_uint256"}],"types":{"t_array(t_uint256)dyn_storage":{"base":"t_uint256","encoding":"dynamic_array","label":"uint256[]","numberOfBytes":"32"},"t_mapping(t_string_memory_ptr,t_struct(Devices)102_storage)":{"encoding":"mapping","key":"t_string_memory_ptr","label":"mapping(string => struct User.Devices)","numberOfBytes":"32","value":"t_struct(Devices)102_storage"},"t_mapping(t_uint256,t_struct(StorageElement)8_storage)":{"encoding":"mapping","key":"t_uint256","label":"mapping(uint256 => struct Storage.StorageElement)","numberOfBytes":"32","value":"t_struct(StorageElement)8_storage"},"t_string_memory_ptr":{"encoding":"bytes","label":"string","numberOfBytes":"32"},"t_string_storage":{"encoding":"bytes","label":"string","numberOfBytes":"32"},"t_struct(Devices)102_storage":{"encoding":"inplace","label":"struct User.Devices","members":[{"astId":94,"contract":"contracts/User.sol:User","label":"id","offset":0,"slot":"0","type":"t_uint256"},{"astId":96,"contract":"contracts/User.sol:User","label":"device_name","offset":0,"slot":"1","type":"t_string_storage"},{"astId":98,"contract":"contracts/User.sol:User","label":"device_endpoint","offset":0,"slot":"2","type":"t_string_storage"},{"astId":101,"contract":"contracts/User.sol:User","label":"store","offset":0,"slot":"3","type":"t_array(t_uint256)dyn_storage"}],"numberOfBytes":"128"},"t_struct(StorageElement)8_storage":{"encoding":"inplace","label":"struct Storage.StorageElement","members":[{"astId":3,"contract":"contracts/User.sol:User","label":"event_id","offset":0,"slot":"0","type":"t_string_storage"},{"astId":5,"contract":"contracts/User.sol:User","label":"time","offset":0,"slot":"1","type":"t_uint256"},{"astId":7,"contract":"contracts/User.sol:User","label":"description","offset":0,"slot":"2","type":"t_string_storage"}],"numberOfBytes":"96"},"t_uint256":{"encoding":"inplace","label":"uint256","numberOfBytes":"32"}}}}}}