{
  "_format": "hh-sol-artifact-1",
  "contractName": "Storage",
  "sourceName": "contracts/Storage.sol",
  "abi": [
    {
      "inputs": [],
      "name": "totalStorage",
      "outputs": [
        {
          "internalType": "uint256",
          "name": "",
          "type": "uint256"
        }
      ],
      "stateMutability": "view",
      "type": "function"
    }
  ],
  "bytecode": "0x6080604052348015600f57600080fd5b50608c8061001e6000396000f3fe6080604052348015600f57600080fd5b506004361060285760003560e01c8063de6b897a14602d575b600080fd5b60336047565b604051603e9190604d565b60405180910390f35b60015481565b9081526020019056fea2646970667358221220c227bd85a0e9101897047aad54e385f309b368e1d8a12384d12bc3e0fa4c968a64736f6c63430008000033",
  "linkReferences": {},
  "deployedLinkReferences": {}
}