{
  "_format": "hh-sol-artifact-1",
  "contractName": "User",
  "sourceName": "contracts/User.sol",
  "abi": [
    {
      "inputs": [
        {
          "internalType": "string",
          "name": "_username",
          "type": "string"
        },
        {
          "internalType": "string",
          "name": "_event_id",
          "type": "string"
        },
        {
          "internalType": "uint256",
          "name": "_time",
          "type": "uint256"
        },
        {
          "internalType": "string",
          "name": "_desc",
          "type": "string"
        }
      ],
      "name": "add_new_storage",
      "outputs": [],
      "stateMutability": "nonpayable",
      "type": "function"
    },
    {
      "inputs": [],
      "name": "get_all_devices",
      "outputs": [
        {
          "internalType": "uint256[]",
          "name": "",
          "type": "uint256[]"
        }
      ],
      "stateMutability": "view",
      "type": "function"
    },
    {
      "inputs": [
        {
          "internalType": "string",
          "name": "_username",
          "type": "string"
        }
      ],
      "name": "get_all_stores",
      "outputs": [
        {
          "internalType": "uint256[]",
          "name": "",
          "type": "uint256[]"
        }
      ],
      "stateMutability": "view",
      "type": "function"
    },
    {
      "inputs": [
        {
          "internalType": "string",
          "name": "_username",
          "type": "string"
        }
      ],
      "name": "get_device_by_username",
      "outputs": [
        {
          "components": [
            {
              "internalType": "uint256",
              "name": "id",
              "type": "uint256"
            },
            {
              "internalType": "string",
              "name": "device_name",
              "type": "string"
            },
            {
              "internalType": "string",
              "name": "device_endpoint",
              "type": "string"
            },
            {
              "internalType": "uint256[]",
              "name": "store",
              "type": "uint256[]"
            }
          ],
          "internalType": "struct User.Devices",
          "name": "",
          "type": "tuple"
        }
      ],
      "stateMutability": "view",
      "type": "function"
    },
    {
      "inputs": [
        {
          "internalType": "uint256",
          "name": "_id",
          "type": "uint256"
        }
      ],
      "name": "get_store_by_id",
      "outputs": [
        {
          "components": [
            {
              "internalType": "string",
              "name": "event_id",
              "type": "string"
            },
            {
              "internalType": "uint256",
              "name": "time",
              "type": "uint256"
            },
            {
              "internalType": "string",
              "name": "description",
              "type": "string"
            }
          ],
          "internalType": "struct Storage.StorageElement",
          "name": "",
          "type": "tuple"
        }
      ],
      "stateMutability": "view",
      "type": "function"
    },
    {
      "inputs": [
        {
          "internalType": "uint256",
          "name": "_id",
          "type": "uint256"
        },
        {
          "internalType": "string",
          "name": "_name",
          "type": "string"
        }
      ],
      "name": "initializer",
      "outputs": [],
      "stateMutability": "nonpayable",
      "type": "function"
    },
    {
      "inputs": [
        {
          "internalType": "string",
          "name": "_name",
          "type": "string"
        },
        {
          "internalType": "string",
          "name": "_username",
          "type": "string"
        },
        {
          "internalType": "string",
          "name": "_device_endpoint",
          "type": "string"
        }
      ],
      "name": "new_device",
      "outputs": [
        {
          "internalType": "uint256",
          "name": "",
          "type": "uint256"
        }
      ],
      "stateMutability": "nonpayable",
      "type": "function"
    },
    {
      "inputs": [],
      "name": "totalStorage",
      "outputs": [
        {
          "internalType": "uint256",
          "name": "",
          "type": "uint256"
        }
      ],
      "stateMutability": "view",
      "type": "function"
    }
  ],
  "bytecode": "0x608060405234801561001057600080fd5b50610c90806100206000396000f3fe608060405234801561001057600080fd5b50600436106100885760003560e01c8063bdcb27131161005b578063bdcb27131461010b578063ce8d8ae214610120578063d1e878e614610133578063de6b897a1461014657610088565b80631042d2681461008d5780632222e4ff146100b65780636555c719146100cb5780637d2e6bd5146100eb575b600080fd5b6100a061009b366004610897565b61014e565b6040516100ad9190610b88565b60405180910390f35b6100c96100c43660046109c1565b6101f7565b005b6100de6100d93660046109a9565b61021e565b6040516100ad9190610b45565b6100fe6100f936600461085c565b610235565b6040516100ad9190610ab6565b6101136103f3565b6040516100ad9190610a4e565b6100c961012e36600461091b565b61044b565b61011361014136600461085c565b61049d565b6100a0610510565b6000806005846040516101619190610a32565b90815260200160405180910390209050848160010190805190602001906101899291906106f9565b50600654815582516101a490600283019060208601906106f9565b50600680546004805460018101825560009182527f8a35acfbc15ff81a39ae7d344fd709f28e8600b4aa8c65c6b64bfe7fe36bd19b018290559091906101e983610c13565b909155505054949350505050565b60006001819055600655600282905580516102199060039060208401906106f9565b505050565b61022661077d565b61022f82610516565b92915050565b61023d61079e565b60058260405161024d9190610a32565b90815260200160405180910390206040518060800160405290816000820154815260200160018201805461028090610bd8565b80601f01602080910402602001604051908101604052809291908181526020018280546102ac90610bd8565b80156102f95780601f106102ce576101008083540402835291602001916102f9565b820191906000526020600020905b8154815290600101906020018083116102dc57829003601f168201915b5050505050815260200160028201805461031290610bd8565b80601f016020809104026020016040519081016040528092919081815260200182805461033e90610bd8565b801561038b5780601f106103605761010080835404028352916020019161038b565b820191906000526020600020905b81548152906001019060200180831161036e57829003601f168201915b50505050508152602001600382018054806020026020016040519081016040528092919081815260200182805480156103e357602002820191906000526020600020905b8154815260200190600101908083116103cf575b5050505050815250509050919050565b6060600480548060200260200160405190810160405280929190818152602001828054801561044157602002820191906000526020600020905b81548152602001906001019080831161042d575b5050505050905090565b600060058560405161045d9190610a32565b90815260200160405180910390209050600061047a85858561068c565b600390920180546001810182556000918252602090912001919091555050505050565b60606005826040516104af9190610a32565b908152604080519182900360209081018320600301805480830285018301909352828452919083018282801561050457602002820191906000526020600020905b8154815260200190600101908083116104f0575b50505050509050919050565b60015481565b61051e61077d565b60015482106105485760405162461bcd60e51b815260040161053f90610a92565b60405180910390fd5b6000828152602081905260409081902081516060810190925280548290829061057090610bd8565b80601f016020809104026020016040519081016040528092919081815260200182805461059c90610bd8565b80156105e95780601f106105be576101008083540402835291602001916105e9565b820191906000526020600020905b8154815290600101906020018083116105cc57829003601f168201915b505050505081526020016001820154815260200160028201805461060c90610bd8565b80601f016020809104026020016040519081016040528092919081815260200182805461063890610bd8565b80156103e35780601f1061065a576101008083540402835291602001916103e3565b820191906000526020600020905b81548152906001019060200180831161066857505050919092525091949350505050565b6001546000908152602081815260408220855190916106af9183918801906106f9565b506001810184905582516106cc90600283019060208601906106f9565b50600180549060006106dd83610c13565b9190505550600180546106f09190610b91565b95945050505050565b82805461070590610bd8565b90600052602060002090601f016020900481019282610727576000855561076d565b82601f1061074057805160ff191683800117855561076d565b8280016001018555821561076d579182015b8281111561076d578251825591602001919060010190610752565b506107799291506107c6565b5090565b60405180606001604052806060815260200160008152602001606081525090565b6040518060800160405280600081526020016060815260200160608152602001606081525090565b5b8082111561077957600081556001016107c7565b600082601f8301126107eb578081fd5b813567ffffffffffffffff8082111561080657610806610c44565b604051601f8301601f19168101602001828111828210171561082a5761082a610c44565b604052828152848301602001861015610841578384fd5b82602086016020830137918201602001929092529392505050565b60006020828403121561086d578081fd5b813567ffffffffffffffff811115610883578182fd5b61088f848285016107db565b949350505050565b6000806000606084860312156108ab578182fd5b833567ffffffffffffffff808211156108c2578384fd5b6108ce878388016107db565b945060208601359150808211156108e3578384fd5b6108ef878388016107db565b93506040860135915080821115610904578283fd5b50610911868287016107db565b9150509250925092565b60008060008060808587031215610930578081fd5b843567ffffffffffffffff80821115610947578283fd5b610953888389016107db565b95506020870135915080821115610968578283fd5b610974888389016107db565b9450604087013593506060870135915080821115610990578283fd5b5061099d878288016107db565b91505092959194509250565b6000602082840312156109ba578081fd5b5035919050565b600080604083850312156109d3578182fd5b82359150602083013567ffffffffffffffff8111156109f0578182fd5b6109fc858286016107db565b9150509250929050565b60008151808452610a1e816020860160208601610ba8565b601f01601f19169290920160200192915050565b60008251610a44818460208701610ba8565b9190910192915050565b6020808252825182820181905260009190848201906040850190845b81811015610a8657835183529284019291840191600101610a6a565b50909695505050505050565b6020808252600a9082015269125b9d985b1a5908125160b21b604082015260600190565b600060208083528351818401528084015160806040850152610adb60a0850182610a06565b90506040850151601f1980868403016060870152610af98383610a06565b60608801518782039092016080880152815180825291850193508592508401905b80831015610b3a5783518252928401926001929092019190840190610b1a565b509695505050505050565b600060208252825160606020840152610b616080840182610a06565b9050602084015160408401526040840151601f198483030160608501526106f08282610a06565b90815260200190565b600082821015610ba357610ba3610c2e565b500390565b60005b83811015610bc3578181015183820152602001610bab565b83811115610bd2576000848401525b50505050565b600281046001821680610bec57607f821691505b60208210811415610c0d57634e487b7160e01b600052602260045260246000fd5b50919050565b6000600019821415610c2757610c27610c2e565b5060010190565b634e487b7160e01b600052601160045260246000fd5b634e487b7160e01b600052604160045260246000fdfea264697066735822122032efaea87706945c7994d02759477415889adfb1e816c2ffd67088e45637e28464736f6c63430008000033",
  "linkReferences": {},
  "deployedLinkReferences": {}
}